{
  "_format": "hh-sol-artifact-1",
  "contractName": "Create",
  "sourceName": "contracts/VotingContract.sol",
  "abi": [
    {
      "inputs": [],
      "stateMutability": "nonpayable",
      "type": "constructor"
    },
    {
      "anonymous": false,
      "inputs": [
        {
          "indexed": true,
          "internalType": "uint256",
          "name": "candidateId",
          "type": "uint256"
        },
        {
          "indexed": false,
          "internalType": "string",
          "name": "name",
          "type": "string"
        },
        {
          "indexed": false,
          "internalType": "string",
          "name": "age",
          "type": "string"
        },
        {
          "indexed": false,
          "internalType": "string",
          "name": "image",
          "type": "string"
        },
        {
          "indexed": false,
          "internalType": "uint256",
          "name": "voteCount",
          "type": "uint256"
        },
        {
          "indexed": false,
          "internalType": "address",
          "name": "_address",
          "type": "address"
        },
        {
          "indexed": false,
          "internalType": "string",
          "name": "ipfs",
          "type": "string"
        }
      ],
      "name": "CandidateCreate",
      "type": "event"
    },
    {
      "anonymous": false,
      "inputs": [
        {
          "indexed": true,
          "internalType": "uint256",
          "name": "voter_voterId",
          "type": "uint256"
        },
        {
          "indexed": false,
          "internalType": "string",
          "name": "voter_name",
          "type": "string"
        },
        {
          "indexed": false,
          "internalType": "string",
          "name": "voter_image",
          "type": "string"
        },
        {
          "indexed": false,
          "internalType": "address",
          "name": "voter_address",
          "type": "address"
        },
        {
          "indexed": false,
          "internalType": "uint256",
          "name": "voter_allowed",
          "type": "uint256"
        },
        {
          "indexed": false,
          "internalType": "bool",
          "name": "voter_voted",
          "type": "bool"
        },
        {
          "indexed": false,
          "internalType": "uint256",
          "name": "voter_vote",
          "type": "uint256"
        },
        {
          "indexed": false,
          "internalType": "string",
          "name": "voter_ipfs",
          "type": "string"
        }
      ],
      "name": "VoterCreated",
      "type": "event"
    },
    {
      "inputs": [],
      "name": "_candidateId",
      "outputs": [
        {
          "internalType": "uint256",
          "name": "_value",
          "type": "uint256"
        }
      ],
      "stateMutability": "view",
      "type": "function"
    },
    {
      "inputs": [],
      "name": "_voterId",
      "outputs": [
        {
          "internalType": "uint256",
          "name": "_value",
          "type": "uint256"
        }
      ],
      "stateMutability": "view",
      "type": "function"
    },
    {
      "inputs": [
        {
          "internalType": "uint256",
          "name": "",
          "type": "uint256"
        }
      ],
      "name": "candidateAddress",
      "outputs": [
        {
          "internalType": "address",
          "name": "",
          "type": "address"
        }
      ],
      "stateMutability": "view",
      "type": "function"
    },
    {
      "inputs": [
        {
          "internalType": "address",
          "name": "",
          "type": "address"
        }
      ],
      "name": "candidates",
      "outputs": [
        {
          "internalType": "uint256",
          "name": "candidateId",
          "type": "uint256"
        },
        {
          "internalType": "string",
          "name": "name",
          "type": "string"
        },
        {
          "internalType": "string",
          "name": "age",
          "type": "string"
        },
        {
          "internalType": "string",
          "name": "image",
          "type": "string"
        },
        {
          "internalType": "uint256",
          "name": "voteCount",
          "type": "uint256"
        },
        {
          "internalType": "address",
          "name": "_address",
          "type": "address"
        },
        {
          "internalType": "string",
          "name": "ipfs",
          "type": "string"
        }
      ],
      "stateMutability": "view",
      "type": "function"
    },
    {
      "inputs": [],
      "name": "getCandidate",
      "outputs": [
        {
          "internalType": "address[]",
          "name": "",
          "type": "address[]"
        }
      ],
      "stateMutability": "view",
      "type": "function"
    },
    {
      "inputs": [],
      "name": "getCandidateLength",
      "outputs": [
        {
          "internalType": "uint256",
          "name": "",
          "type": "uint256"
        }
      ],
      "stateMutability": "view",
      "type": "function"
    },
    {
      "inputs": [
        {
          "internalType": "address",
          "name": "_address",
          "type": "address"
        }
      ],
      "name": "getCandidatedata",
      "outputs": [
        {
          "internalType": "string",
          "name": "",
          "type": "string"
        },
        {
          "internalType": "string",
          "name": "",
          "type": "string"
        },
        {
          "internalType": "uint256",
          "name": "",
          "type": "uint256"
        },
        {
          "internalType": "string",
          "name": "",
          "type": "string"
        },
        {
          "internalType": "uint256",
          "name": "",
          "type": "uint256"
        },
        {
          "internalType": "string",
          "name": "",
          "type": "string"
        },
        {
          "internalType": "address",
          "name": "",
          "type": "address"
        }
      ],
      "stateMutability": "view",
      "type": "function"
    },
    {
      "inputs": [],
      "name": "getVotedVoterList",
      "outputs": [
        {
          "internalType": "address[]",
          "name": "",
          "type": "address[]"
        }
      ],
      "stateMutability": "view",
      "type": "function"
    },
    {
      "inputs": [],
      "name": "getVoterLength",
      "outputs": [
        {
          "internalType": "uint256",
          "name": "",
          "type": "uint256"
        }
      ],
      "stateMutability": "view",
      "type": "function"
    },
    {
      "inputs": [],
      "name": "getVoterList",
      "outputs": [
        {
          "internalType": "address[]",
          "name": "",
          "type": "address[]"
        }
      ],
      "stateMutability": "view",
      "type": "function"
    },
    {
      "inputs": [
        {
          "internalType": "address",
          "name": "_address",
          "type": "address"
        }
      ],
      "name": "getVoterdata",
      "outputs": [
        {
          "internalType": "uint256",
          "name": "",
          "type": "uint256"
        },
        {
          "internalType": "string",
          "name": "",
          "type": "string"
        },
        {
          "internalType": "string",
          "name": "",
          "type": "string"
        },
        {
          "internalType": "address",
          "name": "",
          "type": "address"
        },
        {
          "internalType": "string",
          "name": "",
          "type": "string"
        },
        {
          "internalType": "uint256",
          "name": "",
          "type": "uint256"
        },
        {
          "internalType": "bool",
          "name": "",
          "type": "bool"
        }
      ],
      "stateMutability": "view",
      "type": "function"
    },
    {
      "inputs": [
        {
          "internalType": "address",
          "name": "_address",
          "type": "address"
        },
        {
          "internalType": "string",
          "name": "_age",
          "type": "string"
        },
        {
          "internalType": "string",
          "name": "_name",
          "type": "string"
        },
        {
          "internalType": "string",
          "name": "_image",
          "type": "string"
        },
        {
          "internalType": "string",
          "name": "_ipfs",
          "type": "string"
        }
      ],
      "name": "setCandidate",
      "outputs": [],
      "stateMutability": "nonpayable",
      "type": "function"
    },
    {
      "inputs": [
        {
          "internalType": "address",
          "name": "_candidateAddress",
          "type": "address"
        },
        {
          "internalType": "uint256",
          "name": "_candidateVoteId",
          "type": "uint256"
        }
      ],
      "name": "vote",
      "outputs": [],
      "stateMutability": "nonpayable",
      "type": "function"
    },
    {
      "inputs": [
        {
          "internalType": "uint256",
          "name": "",
          "type": "uint256"
        }
      ],
      "name": "votedVoters",
      "outputs": [
        {
          "internalType": "address",
          "name": "",
          "type": "address"
        }
      ],
      "stateMutability": "view",
      "type": "function"
    },
    {
      "inputs": [
        {
          "internalType": "address",
          "name": "_address",
          "type": "address"
        },
        {
          "internalType": "string",
          "name": "_name",
          "type": "string"
        },
        {
          "internalType": "string",
          "name": "_image",
          "type": "string"
        },
        {
          "internalType": "string",
          "name": "_ipfs",
          "type": "string"
        }
      ],
      "name": "voterRight",
      "outputs": [],
      "stateMutability": "nonpayable",
      "type": "function"
    },
    {
      "inputs": [
        {
          "internalType": "address",
          "name": "",
          "type": "address"
        }
      ],
      "name": "voters",
      "outputs": [
        {
          "internalType": "uint256",
          "name": "voter_voterId",
          "type": "uint256"
        },
        {
          "internalType": "string",
          "name": "voter_name",
          "type": "string"
        },
        {
          "internalType": "string",
          "name": "voter_image",
          "type": "string"
        },
        {
          "internalType": "address",
          "name": "voter_address",
          "type": "address"
        },
        {
          "internalType": "uint256",
          "name": "voter_allowed",
          "type": "uint256"
        },
        {
          "internalType": "bool",
          "name": "voter_voted",
          "type": "bool"
        },
        {
          "internalType": "uint256",
          "name": "voter_vote",
          "type": "uint256"
        },
        {
          "internalType": "string",
          "name": "voter_ipfs",
          "type": "string"
        }
      ],
      "stateMutability": "view",
      "type": "function"
    },
    {
      "inputs": [
        {
          "internalType": "uint256",
          "name": "",
          "type": "uint256"
        }
      ],
      "name": "votersAddress",
      "outputs": [
        {
          "internalType": "address",
          "name": "",
          "type": "address"
        }
      ],
      "stateMutability": "view",
      "type": "function"
    },
    {
      "inputs": [],
      "name": "votingOrganizer",
      "outputs": [
        {
          "internalType": "address",
          "name": "",
          "type": "address"
        }
      ],
      "stateMutability": "view",
      "type": "function"
    }
  ],
  "bytecode": "0x608060405234801561001057600080fd5b5033600260006101000a81548173ffffffffffffffffffffffffffffffffffffffff021916908373ffffffffffffffffffffffffffffffffffffffff160217905550612a8a806100616000396000f3fe608060405234801561001057600080fd5b50600436106101165760003560e01c80638e945685116100a2578063b63c82ca11610071578063b63c82ca14610304578063b9be31521461033a578063c5036fd414610358578063c91ec7121461038e578063f7522a83146103aa57610116565b80638e94568514610273578063a3ec138d14610291578063a7388967146102c8578063b28d92ae146102e657610116565b80635cc48aa7116100e95780635cc48aa7146101b55780635f74bbde146101d357806370218b85146101ef5780637831ffb31461020d5780638ab66a901461023d57610116565b80630361419e1461011b57806305ad45a4146101375780633a88251a1461015557806343242daa14610185575b600080fd5b61013560048036038101906101309190611c81565b6103c8565b005b61013f610676565b60405161014c9190611d55565b60405180910390f35b61016f600480360381019061016a9190611d9c565b610683565b60405161017c9190611dd8565b60405180910390f35b61019f600480360381019061019a9190611d9c565b6106c2565b6040516101ac9190611dd8565b60405180910390f35b6101bd610701565b6040516101ca9190611dd8565b60405180910390f35b6101ed60048036038101906101e89190611df3565b610727565b005b6101f76108ee565b6040516102049190611ef1565b60405180910390f35b61022760048036038101906102229190611d9c565b61097c565b6040516102349190611dd8565b60405180910390f35b61025760048036038101906102529190611f13565b6109bb565b60405161026a9796959493929190611fbf565b60405180910390f35b61027b610c3d565b6040516102889190611ef1565b60405180910390f35b6102ab60048036038101906102a69190611f13565b610ccb565b6040516102bf989796959493929190612065565b60405180910390f35b6102d0610ed8565b6040516102dd9190611d55565b60405180910390f35b6102ee610ee4565b6040516102fb9190611ef1565b60405180910390f35b61031e60048036038101906103199190611f13565b610f72565b60405161033197969594939291906120f8565b60405180910390f35b6103426113b9565b60405161034f9190611d55565b60405180910390f35b610372600480360381019061036d9190611f13565b6113c5565b6040516103859796959493929190612183565b60405180910390f35b6103a860048036038101906103a39190612207565b61178d565b005b6103b2611a98565b6040516103bf9190611d55565b60405180910390f35b3373ffffffffffffffffffffffffffffffffffffffff16600260009054906101000a900473ffffffffffffffffffffffffffffffffffffffff1673ffffffffffffffffffffffffffffffffffffffff1614610458576040517f08c379a000000000000000000000000000000000000000000000000000000000815260040161044f90612364565b60405180910390fd5b6104626000611aa5565b600061046e6000611abb565b90506000600760008773ffffffffffffffffffffffffffffffffffffffff1673ffffffffffffffffffffffffffffffffffffffff168152602001908152602001600020905060008160040154146104fa576040517f08c379a00000000000000000000000000000000000000000000000000000000081526004016104f1906123f6565b60405180910390fd5b60018160040181905550848160010190816105159190612622565b50838160020190816105279190612622565b50858160030160006101000a81548173ffffffffffffffffffffffffffffffffffffffff021916908373ffffffffffffffffffffffffffffffffffffffff1602179055508181600001819055506103e8816006018190555060008160050160006101000a81548160ff021916908315150217905550828160070190816105ad9190612622565b506006869080600181540180825580915050600190039060005260206000200160009091909190916101000a81548173ffffffffffffffffffffffffffffffffffffffff021916908373ffffffffffffffffffffffffffffffffffffffff160217905550817ff5f39971dd62d9929e3a9feaa6bb77fe7c7da0001babff8a65a7e51ad0201c1986868985600401548660050160009054906101000a900460ff1687600601548a60405161066697969594939291906126f4565b60405180910390a2505050505050565b6000600680549050905090565b6003818154811061069357600080fd5b906000526020600020016000915054906101000a900473ffffffffffffffffffffffffffffffffffffffff1681565b600681815481106106d257600080fd5b906000526020600020016000915054906101000a900473ffffffffffffffffffffffffffffffffffffffff1681565b600260009054906101000a900473ffffffffffffffffffffffffffffffffffffffff1681565b6000600760003373ffffffffffffffffffffffffffffffffffffffff1673ffffffffffffffffffffffffffffffffffffffff16815260200190815260200160002090508060050160009054906101000a900460ff16156107bc576040517f08c379a00000000000000000000000000000000000000000000000000000000081526004016107b3906127c4565b60405180910390fd5b6000816004015403610803576040517f08c379a00000000000000000000000000000000000000000000000000000000081526004016107fa90612830565b60405180910390fd5b60018160050160006101000a81548160ff0219169083151502179055508181600601819055506005339080600181540180825580915050600190039060005260206000200160009091909190916101000a81548173ffffffffffffffffffffffffffffffffffffffff021916908373ffffffffffffffffffffffffffffffffffffffff1602179055508060040154600460008573ffffffffffffffffffffffffffffffffffffffff1673ffffffffffffffffffffffffffffffffffffffff16815260200190815260200160002060040160008282546108e2919061287f565b92505081905550505050565b6060600380548060200260200160405190810160405280929190818152602001828054801561097257602002820191906000526020600020905b8160009054906101000a900473ffffffffffffffffffffffffffffffffffffffff1673ffffffffffffffffffffffffffffffffffffffff1681526020019060010190808311610928575b5050505050905090565b6005818154811061098c57600080fd5b906000526020600020016000915054906101000a900473ffffffffffffffffffffffffffffffffffffffff1681565b60046020528060005260406000206000915090508060000154908060010180546109e490612445565b80601f0160208091040260200160405190810160405280929190818152602001828054610a1090612445565b8015610a5d5780601f10610a3257610100808354040283529160200191610a5d565b820191906000526020600020905b815481529060010190602001808311610a4057829003601f168201915b505050505090806002018054610a7290612445565b80601f0160208091040260200160405190810160405280929190818152602001828054610a9e90612445565b8015610aeb5780601f10610ac057610100808354040283529160200191610aeb565b820191906000526020600020905b815481529060010190602001808311610ace57829003601f168201915b505050505090806003018054610b0090612445565b80601f0160208091040260200160405190810160405280929190818152602001828054610b2c90612445565b8015610b795780601f10610b4e57610100808354040283529160200191610b79565b820191906000526020600020905b815481529060010190602001808311610b5c57829003601f168201915b5050505050908060040154908060050160009054906101000a900473ffffffffffffffffffffffffffffffffffffffff1690806006018054610bba90612445565b80601f0160208091040260200160405190810160405280929190818152602001828054610be690612445565b8015610c335780601f10610c0857610100808354040283529160200191610c33565b820191906000526020600020905b815481529060010190602001808311610c1657829003601f168201915b5050505050905087565b60606005805480602002602001604051908101604052809291908181526020018280548015610cc157602002820191906000526020600020905b8160009054906101000a900473ffffffffffffffffffffffffffffffffffffffff1673ffffffffffffffffffffffffffffffffffffffff1681526020019060010190808311610c77575b5050505050905090565b6007602052806000526040600020600091509050806000015490806001018054610cf490612445565b80601f0160208091040260200160405190810160405280929190818152602001828054610d2090612445565b8015610d6d5780601f10610d4257610100808354040283529160200191610d6d565b820191906000526020600020905b815481529060010190602001808311610d5057829003601f168201915b505050505090806002018054610d8290612445565b80601f0160208091040260200160405190810160405280929190818152602001828054610dae90612445565b8015610dfb5780601f10610dd057610100808354040283529160200191610dfb565b820191906000526020600020905b815481529060010190602001808311610dde57829003601f168201915b5050505050908060030160009054906101000a900473ffffffffffffffffffffffffffffffffffffffff16908060040154908060050160009054906101000a900460ff1690806006015490806007018054610e5590612445565b80601f0160208091040260200160405190810160405280929190818152602001828054610e8190612445565b8015610ece5780601f10610ea357610100808354040283529160200191610ece565b820191906000526020600020905b815481529060010190602001808311610eb157829003601f168201915b5050505050905088565b60018060000154905081565b60606006805480602002602001604051908101604052809291908181526020018280548015610f6857602002820191906000526020600020905b8160009054906101000a900473ffffffffffffffffffffffffffffffffffffffff1673ffffffffffffffffffffffffffffffffffffffff1681526020019060010190808311610f1e575b5050505050905090565b60608060006060600060606000600460008973ffffffffffffffffffffffffffffffffffffffff1673ffffffffffffffffffffffffffffffffffffffff168152602001908152602001600020600201600460008a73ffffffffffffffffffffffffffffffffffffffff1673ffffffffffffffffffffffffffffffffffffffff168152602001908152602001600020600101600460008b73ffffffffffffffffffffffffffffffffffffffff1673ffffffffffffffffffffffffffffffffffffffff16815260200190815260200160002060000154600460008c73ffffffffffffffffffffffffffffffffffffffff1673ffffffffffffffffffffffffffffffffffffffff168152602001908152602001600020600301600460008d73ffffffffffffffffffffffffffffffffffffffff1673ffffffffffffffffffffffffffffffffffffffff16815260200190815260200160002060040154600460008e73ffffffffffffffffffffffffffffffffffffffff1673ffffffffffffffffffffffffffffffffffffffff168152602001908152602001600020600601600460008f73ffffffffffffffffffffffffffffffffffffffff1673ffffffffffffffffffffffffffffffffffffffff16815260200190815260200160002060050160009054906101000a900473ffffffffffffffffffffffffffffffffffffffff1686805461117c90612445565b80601f01602080910402602001604051908101604052809291908181526020018280546111a890612445565b80156111f55780601f106111ca576101008083540402835291602001916111f5565b820191906000526020600020905b8154815290600101906020018083116111d857829003601f168201915b5050505050965085805461120890612445565b80601f016020809104026020016040519081016040528092919081815260200182805461123490612445565b80156112815780601f1061125657610100808354040283529160200191611281565b820191906000526020600020905b81548152906001019060200180831161126457829003601f168201915b5050505050955083805461129490612445565b80601f01602080910402602001604051908101604052809291908181526020018280546112c090612445565b801561130d5780601f106112e25761010080835404028352916020019161130d565b820191906000526020600020905b8154815290600101906020018083116112f057829003601f168201915b5050505050935081805461132090612445565b80601f016020809104026020016040519081016040528092919081815260200182805461134c90612445565b80156113995780601f1061136e57610100808354040283529160200191611399565b820191906000526020600020905b81548152906001019060200180831161137c57829003601f168201915b505050505091509650965096509650965096509650919395979092949650565b60008060000154905081565b600060608060006060600080600760008973ffffffffffffffffffffffffffffffffffffffff1673ffffffffffffffffffffffffffffffffffffffff16815260200190815260200160002060000154600760008a73ffffffffffffffffffffffffffffffffffffffff1673ffffffffffffffffffffffffffffffffffffffff168152602001908152602001600020600101600760008b73ffffffffffffffffffffffffffffffffffffffff1673ffffffffffffffffffffffffffffffffffffffff168152602001908152602001600020600201600760008c73ffffffffffffffffffffffffffffffffffffffff1673ffffffffffffffffffffffffffffffffffffffff16815260200190815260200160002060030160009054906101000a900473ffffffffffffffffffffffffffffffffffffffff16600760008d73ffffffffffffffffffffffffffffffffffffffff1673ffffffffffffffffffffffffffffffffffffffff168152602001908152602001600020600701600760008e73ffffffffffffffffffffffffffffffffffffffff1673ffffffffffffffffffffffffffffffffffffffff16815260200190815260200160002060040154600760008f73ffffffffffffffffffffffffffffffffffffffff1673ffffffffffffffffffffffffffffffffffffffff16815260200190815260200160002060050160009054906101000a900460ff168580546115dc90612445565b80601f016020809104026020016040519081016040528092919081815260200182805461160890612445565b80156116555780601f1061162a57610100808354040283529160200191611655565b820191906000526020600020905b81548152906001019060200180831161163857829003601f168201915b5050505050955084805461166890612445565b80601f016020809104026020016040519081016040528092919081815260200182805461169490612445565b80156116e15780601f106116b6576101008083540402835291602001916116e1565b820191906000526020600020905b8154815290600101906020018083116116c457829003601f168201915b505050505094508280546116f490612445565b80601f016020809104026020016040519081016040528092919081815260200182805461172090612445565b801561176d5780601f106117425761010080835404028352916020019161176d565b820191906000526020600020905b81548152906001019060200180831161175057829003601f168201915b505050505092509650965096509650965096509650919395979092949650565b3373ffffffffffffffffffffffffffffffffffffffff16600260009054906101000a900473ffffffffffffffffffffffffffffffffffffffff1673ffffffffffffffffffffffffffffffffffffffff161461181d576040517f08c379a000000000000000000000000000000000000000000000000000000000815260040161181490612925565b60405180910390fd5b8473ffffffffffffffffffffffffffffffffffffffff16600460008773ffffffffffffffffffffffffffffffffffffffff1673ffffffffffffffffffffffffffffffffffffffff16815260200190815260200160002060050160009054906101000a900473ffffffffffffffffffffffffffffffffffffffff1673ffffffffffffffffffffffffffffffffffffffff16036118ed576040517f08c379a00000000000000000000000000000000000000000000000000000000081526004016118e4906129b7565b60405180910390fd5b6118f76001611aa5565b60006119036001611abb565b90506000600460008873ffffffffffffffffffffffffffffffffffffffff1673ffffffffffffffffffffffffffffffffffffffff1681526020019081526020016000209050858160020190816119599190612622565b508481600101908161196b9190612622565b50818160000181905550838160030190816119869190612622565b5060008160040181905550868160050160006101000a81548173ffffffffffffffffffffffffffffffffffffffff021916908373ffffffffffffffffffffffffffffffffffffffff160217905550828160060190816119e59190612622565b506003879080600181540180825580915050600190039060005260206000200160009091909190916101000a81548173ffffffffffffffffffffffffffffffffffffffff021916908373ffffffffffffffffffffffffffffffffffffffff160217905550817fd297f12b256bb8485a6013fb5e302017018123e99a0ebb20756c09e1707b4b9087878785600401548c89604051611a87969594939291906129d7565b60405180910390a250505050505050565b6000600380549050905090565b6001816000016000828254019250508190555050565b600081600001549050919050565b6000604051905090565b600080fd5b600080fd5b600073ffffffffffffffffffffffffffffffffffffffff82169050919050565b6000611b0882611add565b9050919050565b611b1881611afd565b8114611b2357600080fd5b50565b600081359050611b3581611b0f565b92915050565b600080fd5b600080fd5b6000601f19601f8301169050919050565b7f4e487b7100000000000000000000000000000000000000000000000000000000600052604160045260246000fd5b611b8e82611b45565b810181811067ffffffffffffffff82111715611bad57611bac611b56565b5b80604052505050565b6000611bc0611ac9565b9050611bcc8282611b85565b919050565b600067ffffffffffffffff821115611bec57611beb611b56565b5b611bf582611b45565b9050602081019050919050565b82818337600083830152505050565b6000611c24611c1f84611bd1565b611bb6565b905082815260208101848484011115611c4057611c3f611b40565b5b611c4b848285611c02565b509392505050565b600082601f830112611c6857611c67611b3b565b5b8135611c78848260208601611c11565b91505092915050565b60008060008060808587031215611c9b57611c9a611ad3565b5b6000611ca987828801611b26565b945050602085013567ffffffffffffffff811115611cca57611cc9611ad8565b5b611cd687828801611c53565b935050604085013567ffffffffffffffff811115611cf757611cf6611ad8565b5b611d0387828801611c53565b925050606085013567ffffffffffffffff811115611d2457611d23611ad8565b5b611d3087828801611c53565b91505092959194509250565b6000819050919050565b611d4f81611d3c565b82525050565b6000602082019050611d6a6000830184611d46565b92915050565b611d7981611d3c565b8114611d8457600080fd5b50565b600081359050611d9681611d70565b92915050565b600060208284031215611db257611db1611ad3565b5b6000611dc084828501611d87565b91505092915050565b611dd281611afd565b82525050565b6000602082019050611ded6000830184611dc9565b92915050565b60008060408385031215611e0a57611e09611ad3565b5b6000611e1885828601611b26565b9250506020611e2985828601611d87565b9150509250929050565b600081519050919050565b600082825260208201905092915050565b6000819050602082019050919050565b611e6881611afd565b82525050565b6000611e7a8383611e5f565b60208301905092915050565b6000602082019050919050565b6000611e9e82611e33565b611ea88185611e3e565b9350611eb383611e4f565b8060005b83811015611ee4578151611ecb8882611e6e565b9750611ed683611e86565b925050600181019050611eb7565b5085935050505092915050565b60006020820190508181036000830152611f0b8184611e93565b905092915050565b600060208284031215611f2957611f28611ad3565b5b6000611f3784828501611b26565b91505092915050565b600081519050919050565b600082825260208201905092915050565b60005b83811015611f7a578082015181840152602081019050611f5f565b60008484015250505050565b6000611f9182611f40565b611f9b8185611f4b565b9350611fab818560208601611f5c565b611fb481611b45565b840191505092915050565b600060e082019050611fd4600083018a611d46565b8181036020830152611fe68189611f86565b90508181036040830152611ffa8188611f86565b9050818103606083015261200e8187611f86565b905061201d6080830186611d46565b61202a60a0830185611dc9565b81810360c083015261203c8184611f86565b905098975050505050505050565b60008115159050919050565b61205f8161204a565b82525050565b60006101008201905061207b600083018b611d46565b818103602083015261208d818a611f86565b905081810360408301526120a18189611f86565b90506120b06060830188611dc9565b6120bd6080830187611d46565b6120ca60a0830186612056565b6120d760c0830185611d46565b81810360e08301526120e98184611f86565b90509998505050505050505050565b600060e0820190508181036000830152612112818a611f86565b905081810360208301526121268189611f86565b90506121356040830188611d46565b81810360608301526121478187611f86565b90506121566080830186611d46565b81810360a08301526121688185611f86565b905061217760c0830184611dc9565b98975050505050505050565b600060e082019050612198600083018a611d46565b81810360208301526121aa8189611f86565b905081810360408301526121be8188611f86565b90506121cd6060830187611dc9565b81810360808301526121df8186611f86565b90506121ee60a0830185611d46565b6121fb60c0830184612056565b98975050505050505050565b600080600080600060a0868803121561222357612222611ad3565b5b600061223188828901611b26565b955050602086013567ffffffffffffffff81111561225257612251611ad8565b5b61225e88828901611c53565b945050604086013567ffffffffffffffff81111561227f5761227e611ad8565b5b61228b88828901611c53565b935050606086013567ffffffffffffffff8111156122ac576122ab611ad8565b5b6122b888828901611c53565b925050608086013567ffffffffffffffff8111156122d9576122d8611ad8565b5b6122e588828901611c53565b9150509295509295909350565b7f4f6e6c79204f7267616e697a65722063616e2063726561746520566f7465722060008201527f6e6f7420796f7500000000000000000000000000000000000000000000000000602082015250565b600061234e602783611f4b565b9150612359826122f2565b604082019050919050565b6000602082019050818103600083015261237d81612341565b9050919050565b7f566f74657220776974682074686973206164647265737320616c72656164792060008201527f6578697374730000000000000000000000000000000000000000000000000000602082015250565b60006123e0602683611f4b565b91506123eb82612384565b604082019050919050565b6000602082019050818103600083015261240f816123d3565b9050919050565b7f4e487b7100000000000000000000000000000000000000000000000000000000600052602260045260246000fd5b6000600282049050600182168061245d57607f821691505b6020821081036124705761246f612416565b5b50919050565b60008190508160005260206000209050919050565b60006020601f8301049050919050565b600082821b905092915050565b6000600883026124d87fffffffffffffffffffffffffffffffffffffffffffffffffffffffffffffffff8261249b565b6124e2868361249b565b95508019841693508086168417925050509392505050565b6000819050919050565b600061251f61251a61251584611d3c565b6124fa565b611d3c565b9050919050565b6000819050919050565b61253983612504565b61254d61254582612526565b8484546124a8565b825550505050565b600090565b612562612555565b61256d818484612530565b505050565b5b818110156125915761258660008261255a565b600181019050612573565b5050565b601f8211156125d6576125a781612476565b6125b08461248b565b810160208510156125bf578190505b6125d36125cb8561248b565b830182612572565b50505b505050565b600082821c905092915050565b60006125f9600019846008026125db565b1980831691505092915050565b600061261283836125e8565b9150826002028217905092915050565b61262b82611f40565b67ffffffffffffffff81111561264457612643611b56565b5b61264e8254612445565b612659828285612595565b600060209050601f83116001811461268c576000841561267a578287015190505b6126848582612606565b8655506126ec565b601f19841661269a86612476565b60005b828110156126c25784890151825560018201915060208501945060208101905061269d565b868310156126df57848901516126db601f8916826125e8565b8355505b6001600288020188555050505b505050505050565b600060e082019050818103600083015261270e818a611f86565b905081810360208301526127228189611f86565b90506127316040830188611dc9565b61273e6060830187611d46565b61274b6080830186612056565b61275860a0830185611d46565b81810360c083015261276a8184611f86565b905098975050505050505050565b7f596f75206861766520616c726561647920566f74656400000000000000000000600082015250565b60006127ae601683611f4b565b91506127b982612778565b602082019050919050565b600060208201905081810360008301526127dd816127a1565b9050919050565b7f596f752068617665206e6f20726967687420746f20566f746500000000000000600082015250565b600061281a601983611f4b565b9150612825826127e4565b602082019050919050565b600060208201905081810360008301526128498161280d565b9050919050565b7f4e487b7100000000000000000000000000000000000000000000000000000000600052601160045260246000fd5b600061288a82611d3c565b915061289583611d3c565b92508282019050808211156128ad576128ac612850565b5b92915050565b7f4f6e6c79204f7267616e697a65722063616e206175746f72697a652063616e6460008201527f6964617465000000000000000000000000000000000000000000000000000000602082015250565b600061290f602583611f4b565b915061291a826128b3565b604082019050919050565b6000602082019050818103600083015261293e81612902565b9050919050565b7f43616e64696461746520776974682074686973206164647265737320616c726560008201527f6164792065786973747300000000000000000000000000000000000000000000602082015250565b60006129a1602a83611f4b565b91506129ac82612945565b604082019050919050565b600060208201905081810360008301526129d081612994565b9050919050565b600060c08201905081810360008301526129f18189611f86565b90508181036020830152612a058188611f86565b90508181036040830152612a198187611f86565b9050612a286060830186611d46565b612a356080830185611dc9565b81810360a0830152612a478184611f86565b905097965050505050505056fea26469706673582212207aebb020f5cb26d37f93e2f13db07bbb74f34bc28781dc79c9cb1d7866a71e1664736f6c63430008180033",
  "linkReferences": {},
  "deployedLinkReferences": {}
}