{
  "_format": "hh-sol-artifact-1",
  "contractName": "Create",
  "sourceName": "contracts/VotingContract.sol",
  "abi": [
    {
      "inputs": [],
      "stateMutability": "nonpayable",
      "type": "constructor"
    },
    {
      "anonymous": false,
      "inputs": [
        {
          "indexed": true,
          "internalType": "uint256",
          "name": "candidateId",
          "type": "uint256"
        },
        {
          "indexed": false,
          "internalType": "string",
          "name": "name",
          "type": "string"
        },
        {
          "indexed": false,
          "internalType": "string",
          "name": "age",
          "type": "string"
        },
        {
          "indexed": false,
          "internalType": "string",
          "name": "image",
          "type": "string"
        },
        {
          "indexed": false,
          "internalType": "uint256",
          "name": "voteCount",
          "type": "uint256"
        },
        {
          "indexed": false,
          "internalType": "address",
          "name": "_address",
          "type": "address"
        },
        {
          "indexed": false,
          "internalType": "string",
          "name": "ipfs",
          "type": "string"
        }
      ],
      "name": "CandidateCreate",
      "type": "event"
    },
    {
      "anonymous": false,
      "inputs": [
        {
          "indexed": true,
          "internalType": "uint256",
          "name": "voter_voterId",
          "type": "uint256"
        },
        {
          "indexed": false,
          "internalType": "string",
          "name": "voter_name",
          "type": "string"
        },
        {
          "indexed": false,
          "internalType": "string",
          "name": "voter_image",
          "type": "string"
        },
        {
          "indexed": false,
          "internalType": "address",
          "name": "voter_address",
          "type": "address"
        },
        {
          "indexed": false,
          "internalType": "uint256",
          "name": "voter_allowed",
          "type": "uint256"
        },
        {
          "indexed": false,
          "internalType": "bool",
          "name": "voter_voted",
          "type": "bool"
        },
        {
          "indexed": false,
          "internalType": "uint256",
          "name": "voter_vote",
          "type": "uint256"
        },
        {
          "indexed": false,
          "internalType": "string",
          "name": "voter_ipfs",
          "type": "string"
        }
      ],
      "name": "VoterCreated",
      "type": "event"
    },
    {
      "inputs": [],
      "name": "_candidateId",
      "outputs": [
        {
          "internalType": "uint256",
          "name": "_value",
          "type": "uint256"
        }
      ],
      "stateMutability": "view",
      "type": "function"
    },
    {
      "inputs": [],
      "name": "_voterId",
      "outputs": [
        {
          "internalType": "uint256",
          "name": "_value",
          "type": "uint256"
        }
      ],
      "stateMutability": "view",
      "type": "function"
    },
    {
      "inputs": [
        {
          "internalType": "uint256",
          "name": "",
          "type": "uint256"
        }
      ],
      "name": "candidateAddress",
      "outputs": [
        {
          "internalType": "address",
          "name": "",
          "type": "address"
        }
      ],
      "stateMutability": "view",
      "type": "function"
    },
    {
      "inputs": [
        {
          "internalType": "address",
          "name": "",
          "type": "address"
        }
      ],
      "name": "candidates",
      "outputs": [
        {
          "internalType": "uint256",
          "name": "candidateId",
          "type": "uint256"
        },
        {
          "internalType": "string",
          "name": "name",
          "type": "string"
        },
        {
          "internalType": "string",
          "name": "age",
          "type": "string"
        },
        {
          "internalType": "string",
          "name": "image",
          "type": "string"
        },
        {
          "internalType": "uint256",
          "name": "voteCount",
          "type": "uint256"
        },
        {
          "internalType": "address",
          "name": "_address",
          "type": "address"
        },
        {
          "internalType": "string",
          "name": "ipfs",
          "type": "string"
        }
      ],
      "stateMutability": "view",
      "type": "function"
    },
    {
      "inputs": [],
      "name": "determineWinner",
      "outputs": [
        {
          "internalType": "address",
          "name": "",
          "type": "address"
        }
      ],
      "stateMutability": "view",
      "type": "function"
    },
    {
      "inputs": [],
      "name": "endVotingPeriod",
      "outputs": [],
      "stateMutability": "nonpayable",
      "type": "function"
    },
    {
      "inputs": [],
      "name": "getCandidate",
      "outputs": [
        {
          "internalType": "address[]",
          "name": "",
          "type": "address[]"
        }
      ],
      "stateMutability": "view",
      "type": "function"
    },
    {
      "inputs": [],
      "name": "getCandidateLength",
      "outputs": [
        {
          "internalType": "uint256",
          "name": "",
          "type": "uint256"
        }
      ],
      "stateMutability": "view",
      "type": "function"
    },
    {
      "inputs": [
        {
          "internalType": "address",
          "name": "_address",
          "type": "address"
        }
      ],
      "name": "getCandidatedata",
      "outputs": [
        {
          "internalType": "string",
          "name": "",
          "type": "string"
        },
        {
          "internalType": "string",
          "name": "",
          "type": "string"
        },
        {
          "internalType": "uint256",
          "name": "",
          "type": "uint256"
        },
        {
          "internalType": "string",
          "name": "",
          "type": "string"
        },
        {
          "internalType": "uint256",
          "name": "",
          "type": "uint256"
        },
        {
          "internalType": "string",
          "name": "",
          "type": "string"
        },
        {
          "internalType": "address",
          "name": "",
          "type": "address"
        }
      ],
      "stateMutability": "view",
      "type": "function"
    },
    {
      "inputs": [],
      "name": "getVotedVoterList",
      "outputs": [
        {
          "internalType": "address[]",
          "name": "",
          "type": "address[]"
        }
      ],
      "stateMutability": "view",
      "type": "function"
    },
    {
      "inputs": [],
      "name": "getVoterLength",
      "outputs": [
        {
          "internalType": "uint256",
          "name": "",
          "type": "uint256"
        }
      ],
      "stateMutability": "view",
      "type": "function"
    },
    {
      "inputs": [],
      "name": "getVoterList",
      "outputs": [
        {
          "internalType": "address[]",
          "name": "",
          "type": "address[]"
        }
      ],
      "stateMutability": "view",
      "type": "function"
    },
    {
      "inputs": [
        {
          "internalType": "address",
          "name": "_address",
          "type": "address"
        }
      ],
      "name": "getVoterdata",
      "outputs": [
        {
          "internalType": "uint256",
          "name": "",
          "type": "uint256"
        },
        {
          "internalType": "string",
          "name": "",
          "type": "string"
        },
        {
          "internalType": "string",
          "name": "",
          "type": "string"
        },
        {
          "internalType": "address",
          "name": "",
          "type": "address"
        },
        {
          "internalType": "string",
          "name": "",
          "type": "string"
        },
        {
          "internalType": "uint256",
          "name": "",
          "type": "uint256"
        },
        {
          "internalType": "bool",
          "name": "",
          "type": "bool"
        }
      ],
      "stateMutability": "view",
      "type": "function"
    },
    {
      "inputs": [],
      "name": "getWinnerInfo",
      "outputs": [
        {
          "internalType": "uint256",
          "name": "candidateId",
          "type": "uint256"
        },
        {
          "internalType": "string",
          "name": "name",
          "type": "string"
        },
        {
          "internalType": "string",
          "name": "age",
          "type": "string"
        },
        {
          "internalType": "string",
          "name": "image",
          "type": "string"
        },
        {
          "internalType": "uint256",
          "name": "voteCount",
          "type": "uint256"
        },
        {
          "internalType": "address",
          "name": "_address",
          "type": "address"
        },
        {
          "internalType": "string",
          "name": "ipfs",
          "type": "string"
        }
      ],
      "stateMutability": "view",
      "type": "function"
    },
    {
      "inputs": [
        {
          "internalType": "address",
          "name": "_address",
          "type": "address"
        },
        {
          "internalType": "string",
          "name": "_age",
          "type": "string"
        },
        {
          "internalType": "string",
          "name": "_name",
          "type": "string"
        },
        {
          "internalType": "string",
          "name": "_image",
          "type": "string"
        },
        {
          "internalType": "string",
          "name": "_ipfs",
          "type": "string"
        }
      ],
      "name": "setCandidate",
      "outputs": [],
      "stateMutability": "nonpayable",
      "type": "function"
    },
    {
      "inputs": [],
      "name": "startVotingPeriod",
      "outputs": [],
      "stateMutability": "nonpayable",
      "type": "function"
    },
    {
      "inputs": [
        {
          "internalType": "address",
          "name": "_candidateAddress",
          "type": "address"
        },
        {
          "internalType": "uint256",
          "name": "_candidateVoteId",
          "type": "uint256"
        }
      ],
      "name": "vote",
      "outputs": [],
      "stateMutability": "nonpayable",
      "type": "function"
    },
    {
      "inputs": [
        {
          "internalType": "uint256",
          "name": "",
          "type": "uint256"
        }
      ],
      "name": "votedVoters",
      "outputs": [
        {
          "internalType": "address",
          "name": "",
          "type": "address"
        }
      ],
      "stateMutability": "view",
      "type": "function"
    },
    {
      "inputs": [
        {
          "internalType": "address",
          "name": "_address",
          "type": "address"
        },
        {
          "internalType": "string",
          "name": "_name",
          "type": "string"
        },
        {
          "internalType": "string",
          "name": "_image",
          "type": "string"
        },
        {
          "internalType": "string",
          "name": "_ipfs",
          "type": "string"
        }
      ],
      "name": "voterRight",
      "outputs": [],
      "stateMutability": "nonpayable",
      "type": "function"
    },
    {
      "inputs": [
        {
          "internalType": "address",
          "name": "",
          "type": "address"
        }
      ],
      "name": "voters",
      "outputs": [
        {
          "internalType": "uint256",
          "name": "voter_voterId",
          "type": "uint256"
        },
        {
          "internalType": "string",
          "name": "voter_name",
          "type": "string"
        },
        {
          "internalType": "string",
          "name": "voter_image",
          "type": "string"
        },
        {
          "internalType": "address",
          "name": "voter_address",
          "type": "address"
        },
        {
          "internalType": "uint256",
          "name": "voter_allowed",
          "type": "uint256"
        },
        {
          "internalType": "bool",
          "name": "voter_voted",
          "type": "bool"
        },
        {
          "internalType": "uint256",
          "name": "voter_vote",
          "type": "uint256"
        },
        {
          "internalType": "string",
          "name": "voter_ipfs",
          "type": "string"
        }
      ],
      "stateMutability": "view",
      "type": "function"
    },
    {
      "inputs": [
        {
          "internalType": "uint256",
          "name": "",
          "type": "uint256"
        }
      ],
      "name": "votersAddress",
      "outputs": [
        {
          "internalType": "address",
          "name": "",
          "type": "address"
        }
      ],
      "stateMutability": "view",
      "type": "function"
    },
    {
      "inputs": [],
      "name": "votingEnded",
      "outputs": [
        {
          "internalType": "bool",
          "name": "",
          "type": "bool"
        }
      ],
      "stateMutability": "view",
      "type": "function"
    },
    {
      "inputs": [],
      "name": "votingOrganizer",
      "outputs": [
        {
          "internalType": "address",
          "name": "",
          "type": "address"
        }
      ],
      "stateMutability": "view",
      "type": "function"
    },
    {
      "inputs": [],
      "name": "votingStarted",
      "outputs": [
        {
          "internalType": "bool",
          "name": "",
          "type": "bool"
        }
      ],
      "stateMutability": "view",
      "type": "function"
    }
  ],
  "bytecode": "0x608060405234801561001057600080fd5b5033600260006101000a81548173ffffffffffffffffffffffffffffffffffffffff021916908373ffffffffffffffffffffffffffffffffffffffff1602179055506000600260146101000a81548160ff0219169083151502179055506000600260156101000a81548160ff0219169083151502179055506136b1806100976000396000f3fe608060405234801561001057600080fd5b50600436106101585760003560e01c80638e945685116100c3578063b9be31521161007c578063b9be3152146103fa578063c5036fd414610418578063c64482ab1461044e578063c91ec71214610458578063e80a57a514610474578063f7522a831461047e57610158565b80638e945685146103155780639d5a052914610333578063a3ec138d14610351578063a738896714610388578063b28d92ae146103a6578063b63c82ca146103c457610158565b80635cc48aa7116101155780635cc48aa7146102395780635f74bbde1461025757806370218b85146102735780637831ffb31461029157806383d948b7146102c15780638ab66a90146102df57610158565b80630361419e1461015d57806305ad45a41461017957806322bb26f71461019757806333b16d93146101bb5780633a88251a146101d957806343242daa14610209575b600080fd5b6101776004803603810190610172919061253e565b61049c565b005b61018161074a565b60405161018e9190612612565b60405180910390f35b61019f610757565b6040516101b297969594939291906126bb565b60405180910390f35b6101c3610aab565b6040516101d09190612746565b60405180910390f35b6101f360048036038101906101ee919061278d565b610c00565b6040516102009190612746565b60405180910390f35b610223600480360381019061021e919061278d565b610c3f565b6040516102309190612746565b60405180910390f35b610241610c7e565b60405161024e9190612746565b60405180910390f35b610271600480360381019061026c91906127ba565b610ca4565b005b61027b610f0a565b60405161028891906128b8565b60405180910390f35b6102ab60048036038101906102a6919061278d565b610f98565b6040516102b89190612746565b60405180910390f35b6102c9610fd7565b6040516102d691906128f5565b60405180910390f35b6102f960048036038101906102f49190612910565b610fea565b60405161030c97969594939291906126bb565b60405180910390f35b61031d61126c565b60405161032a91906128b8565b60405180910390f35b61033b6112fa565b60405161034891906128f5565b60405180910390f35b61036b60048036038101906103669190612910565b61130d565b60405161037f98979695949392919061293d565b60405180910390f35b61039061151a565b60405161039d9190612612565b60405180910390f35b6103ae611526565b6040516103bb91906128b8565b60405180910390f35b6103de60048036038101906103d99190612910565b6115b4565b6040516103f197969594939291906129d0565b60405180910390f35b6104026119fb565b60405161040f9190612612565b60405180910390f35b610432600480360381019061042d9190612910565b611a07565b6040516104459796959493929190612a5b565b60405180910390f35b610456611dcf565b005b610472600480360381019061046d9190612adf565b611efe565b005b61047c612209565b005b610486612355565b6040516104939190612612565b60405180910390f35b3373ffffffffffffffffffffffffffffffffffffffff16600260009054906101000a900473ffffffffffffffffffffffffffffffffffffffff1673ffffffffffffffffffffffffffffffffffffffff161461052c576040517f08c379a000000000000000000000000000000000000000000000000000000000815260040161052390612c3c565b60405180910390fd5b6105366000612362565b60006105426000612378565b90506000600760008773ffffffffffffffffffffffffffffffffffffffff1673ffffffffffffffffffffffffffffffffffffffff168152602001908152602001600020905060008160040154146105ce576040517f08c379a00000000000000000000000000000000000000000000000000000000081526004016105c590612cce565b60405180910390fd5b60018160040181905550848160010190816105e99190612efa565b50838160020190816105fb9190612efa565b50858160030160006101000a81548173ffffffffffffffffffffffffffffffffffffffff021916908373ffffffffffffffffffffffffffffffffffffffff1602179055508181600001819055506103e8816006018190555060008160050160006101000a81548160ff021916908315150217905550828160070190816106819190612efa565b506006869080600181540180825580915050600190039060005260206000200160009091909190916101000a81548173ffffffffffffffffffffffffffffffffffffffff021916908373ffffffffffffffffffffffffffffffffffffffff160217905550817ff5f39971dd62d9929e3a9feaa6bb77fe7c7da0001babff8a65a7e51ad0201c1986868985600401548660050160009054906101000a900460ff1687600601548a60405161073a9796959493929190612fcc565b60405180910390a2505050505050565b6000600680549050905090565b600060608060606000806060600061076d610aab565b90506000600460008373ffffffffffffffffffffffffffffffffffffffff1673ffffffffffffffffffffffffffffffffffffffff1681526020019081526020016000206040518060e0016040529081600082015481526020016001820180546107d590612d1d565b80601f016020809104026020016040519081016040528092919081815260200182805461080190612d1d565b801561084e5780601f106108235761010080835404028352916020019161084e565b820191906000526020600020905b81548152906001019060200180831161083157829003601f168201915b5050505050815260200160028201805461086790612d1d565b80601f016020809104026020016040519081016040528092919081815260200182805461089390612d1d565b80156108e05780601f106108b5576101008083540402835291602001916108e0565b820191906000526020600020905b8154815290600101906020018083116108c357829003601f168201915b505050505081526020016003820180546108f990612d1d565b80601f016020809104026020016040519081016040528092919081815260200182805461092590612d1d565b80156109725780601f1061094757610100808354040283529160200191610972565b820191906000526020600020905b81548152906001019060200180831161095557829003601f168201915b50505050508152602001600482015481526020016005820160009054906101000a900473ffffffffffffffffffffffffffffffffffffffff1673ffffffffffffffffffffffffffffffffffffffff1673ffffffffffffffffffffffffffffffffffffffff1681526020016006820180546109eb90612d1d565b80601f0160208091040260200160405190810160405280929190818152602001828054610a1790612d1d565b8015610a645780601f10610a3957610100808354040283529160200191610a64565b820191906000526020600020905b815481529060010190602001808311610a4757829003601f168201915b5050505050815250509050806000015181602001518260400151836060015184608001518560a001518660c001519850985098509850985098509850505090919293949596565b6000600260159054906101000a900460ff16610afc576040517f08c379a0000000000000000000000000000000000000000000000000000000008152600401610af39061309c565b60405180910390fd5b6000806000905060005b600380549050811015610bf757600060038281548110610b2957610b286130bc565b5b9060005260206000200160009054906101000a900473ffffffffffffffffffffffffffffffffffffffff16905082600460008373ffffffffffffffffffffffffffffffffffffffff1673ffffffffffffffffffffffffffffffffffffffff168152602001908152602001600020600401541115610be957600460008273ffffffffffffffffffffffffffffffffffffffff1673ffffffffffffffffffffffffffffffffffffffff1681526020019081526020016000206004015492508093505b508080600101915050610b06565b50819250505090565b60038181548110610c1057600080fd5b906000526020600020016000915054906101000a900473ffffffffffffffffffffffffffffffffffffffff1681565b60068181548110610c4f57600080fd5b906000526020600020016000915054906101000a900473ffffffffffffffffffffffffffffffffffffffff1681565b600260009054906101000a900473ffffffffffffffffffffffffffffffffffffffff1681565b6000600760003373ffffffffffffffffffffffffffffffffffffffff1673ffffffffffffffffffffffffffffffffffffffff1681526020019081526020016000209050600260149054906101000a900460ff16610d36576040517f08c379a0000000000000000000000000000000000000000000000000000000008152600401610d2d9061315d565b60405180910390fd5b600260159054906101000a900460ff1615610d86576040517f08c379a0000000000000000000000000000000000000000000000000000000008152600401610d7d906131c9565b60405180910390fd5b8060050160009054906101000a900460ff1615610dd8576040517f08c379a0000000000000000000000000000000000000000000000000000000008152600401610dcf90613235565b60405180910390fd5b6000816004015403610e1f576040517f08c379a0000000000000000000000000000000000000000000000000000000008152600401610e16906132a1565b60405180910390fd5b60018160050160006101000a81548160ff0219169083151502179055508181600601819055506005339080600181540180825580915050600190039060005260206000200160009091909190916101000a81548173ffffffffffffffffffffffffffffffffffffffff021916908373ffffffffffffffffffffffffffffffffffffffff1602179055508060040154600460008573ffffffffffffffffffffffffffffffffffffffff1673ffffffffffffffffffffffffffffffffffffffff1681526020019081526020016000206004016000828254610efe91906132f0565b92505081905550505050565b60606003805480602002602001604051908101604052809291908181526020018280548015610f8e57602002820191906000526020600020905b8160009054906101000a900473ffffffffffffffffffffffffffffffffffffffff1673ffffffffffffffffffffffffffffffffffffffff1681526020019060010190808311610f44575b5050505050905090565b60058181548110610fa857600080fd5b906000526020600020016000915054906101000a900473ffffffffffffffffffffffffffffffffffffffff1681565b600260149054906101000a900460ff1681565b600460205280600052604060002060009150905080600001549080600101805461101390612d1d565b80601f016020809104026020016040519081016040528092919081815260200182805461103f90612d1d565b801561108c5780601f106110615761010080835404028352916020019161108c565b820191906000526020600020905b81548152906001019060200180831161106f57829003601f168201915b5050505050908060020180546110a190612d1d565b80601f01602080910402602001604051908101604052809291908181526020018280546110cd90612d1d565b801561111a5780601f106110ef5761010080835404028352916020019161111a565b820191906000526020600020905b8154815290600101906020018083116110fd57829003601f168201915b50505050509080600301805461112f90612d1d565b80601f016020809104026020016040519081016040528092919081815260200182805461115b90612d1d565b80156111a85780601f1061117d576101008083540402835291602001916111a8565b820191906000526020600020905b81548152906001019060200180831161118b57829003601f168201915b5050505050908060040154908060050160009054906101000a900473ffffffffffffffffffffffffffffffffffffffff16908060060180546111e990612d1d565b80601f016020809104026020016040519081016040528092919081815260200182805461121590612d1d565b80156112625780601f1061123757610100808354040283529160200191611262565b820191906000526020600020905b81548152906001019060200180831161124557829003601f168201915b5050505050905087565b606060058054806020026020016040519081016040528092919081815260200182805480156112f057602002820191906000526020600020905b8160009054906101000a900473ffffffffffffffffffffffffffffffffffffffff1673ffffffffffffffffffffffffffffffffffffffff16815260200190600101908083116112a6575b5050505050905090565b600260159054906101000a900460ff1681565b600760205280600052604060002060009150905080600001549080600101805461133690612d1d565b80601f016020809104026020016040519081016040528092919081815260200182805461136290612d1d565b80156113af5780601f10611384576101008083540402835291602001916113af565b820191906000526020600020905b81548152906001019060200180831161139257829003601f168201915b5050505050908060020180546113c490612d1d565b80601f01602080910402602001604051908101604052809291908181526020018280546113f090612d1d565b801561143d5780601f106114125761010080835404028352916020019161143d565b820191906000526020600020905b81548152906001019060200180831161142057829003601f168201915b5050505050908060030160009054906101000a900473ffffffffffffffffffffffffffffffffffffffff16908060040154908060050160009054906101000a900460ff169080600601549080600701805461149790612d1d565b80601f01602080910402602001604051908101604052809291908181526020018280546114c390612d1d565b80156115105780601f106114e557610100808354040283529160200191611510565b820191906000526020600020905b8154815290600101906020018083116114f357829003601f168201915b5050505050905088565b60018060000154905081565b606060068054806020026020016040519081016040528092919081815260200182805480156115aa57602002820191906000526020600020905b8160009054906101000a900473ffffffffffffffffffffffffffffffffffffffff1673ffffffffffffffffffffffffffffffffffffffff1681526020019060010190808311611560575b5050505050905090565b60608060006060600060606000600460008973ffffffffffffffffffffffffffffffffffffffff1673ffffffffffffffffffffffffffffffffffffffff168152602001908152602001600020600201600460008a73ffffffffffffffffffffffffffffffffffffffff1673ffffffffffffffffffffffffffffffffffffffff168152602001908152602001600020600101600460008b73ffffffffffffffffffffffffffffffffffffffff1673ffffffffffffffffffffffffffffffffffffffff16815260200190815260200160002060000154600460008c73ffffffffffffffffffffffffffffffffffffffff1673ffffffffffffffffffffffffffffffffffffffff168152602001908152602001600020600301600460008d73ffffffffffffffffffffffffffffffffffffffff1673ffffffffffffffffffffffffffffffffffffffff16815260200190815260200160002060040154600460008e73ffffffffffffffffffffffffffffffffffffffff1673ffffffffffffffffffffffffffffffffffffffff168152602001908152602001600020600601600460008f73ffffffffffffffffffffffffffffffffffffffff1673ffffffffffffffffffffffffffffffffffffffff16815260200190815260200160002060050160009054906101000a900473ffffffffffffffffffffffffffffffffffffffff168680546117be90612d1d565b80601f01602080910402602001604051908101604052809291908181526020018280546117ea90612d1d565b80156118375780601f1061180c57610100808354040283529160200191611837565b820191906000526020600020905b81548152906001019060200180831161181a57829003601f168201915b5050505050965085805461184a90612d1d565b80601f016020809104026020016040519081016040528092919081815260200182805461187690612d1d565b80156118c35780601f10611898576101008083540402835291602001916118c3565b820191906000526020600020905b8154815290600101906020018083116118a657829003601f168201915b505050505095508380546118d690612d1d565b80601f016020809104026020016040519081016040528092919081815260200182805461190290612d1d565b801561194f5780601f106119245761010080835404028352916020019161194f565b820191906000526020600020905b81548152906001019060200180831161193257829003601f168201915b5050505050935081805461196290612d1d565b80601f016020809104026020016040519081016040528092919081815260200182805461198e90612d1d565b80156119db5780601f106119b0576101008083540402835291602001916119db565b820191906000526020600020905b8154815290600101906020018083116119be57829003601f168201915b505050505091509650965096509650965096509650919395979092949650565b60008060000154905081565b600060608060006060600080600760008973ffffffffffffffffffffffffffffffffffffffff1673ffffffffffffffffffffffffffffffffffffffff16815260200190815260200160002060000154600760008a73ffffffffffffffffffffffffffffffffffffffff1673ffffffffffffffffffffffffffffffffffffffff168152602001908152602001600020600101600760008b73ffffffffffffffffffffffffffffffffffffffff1673ffffffffffffffffffffffffffffffffffffffff168152602001908152602001600020600201600760008c73ffffffffffffffffffffffffffffffffffffffff1673ffffffffffffffffffffffffffffffffffffffff16815260200190815260200160002060030160009054906101000a900473ffffffffffffffffffffffffffffffffffffffff16600760008d73ffffffffffffffffffffffffffffffffffffffff1673ffffffffffffffffffffffffffffffffffffffff168152602001908152602001600020600701600760008e73ffffffffffffffffffffffffffffffffffffffff1673ffffffffffffffffffffffffffffffffffffffff16815260200190815260200160002060040154600760008f73ffffffffffffffffffffffffffffffffffffffff1673ffffffffffffffffffffffffffffffffffffffff16815260200190815260200160002060050160009054906101000a900460ff16858054611c1e90612d1d565b80601f0160208091040260200160405190810160405280929190818152602001828054611c4a90612d1d565b8015611c975780601f10611c6c57610100808354040283529160200191611c97565b820191906000526020600020905b815481529060010190602001808311611c7a57829003601f168201915b50505050509550848054611caa90612d1d565b80601f0160208091040260200160405190810160405280929190818152602001828054611cd690612d1d565b8015611d235780601f10611cf857610100808354040283529160200191611d23565b820191906000526020600020905b815481529060010190602001808311611d0657829003601f168201915b50505050509450828054611d3690612d1d565b80601f0160208091040260200160405190810160405280929190818152602001828054611d6290612d1d565b8015611daf5780601f10611d8457610100808354040283529160200191611daf565b820191906000526020600020905b815481529060010190602001808311611d9257829003601f168201915b505050505092509650965096509650965096509650919395979092949650565b600260009054906101000a900473ffffffffffffffffffffffffffffffffffffffff1673ffffffffffffffffffffffffffffffffffffffff163373ffffffffffffffffffffffffffffffffffffffff1614611e5f576040517f08c379a0000000000000000000000000000000000000000000000000000000008152600401611e5690613396565b60405180910390fd5b600260149054906101000a900460ff161580611e875750600260159054906101000a900460ff165b611ec6576040517f08c379a0000000000000000000000000000000000000000000000000000000008152600401611ebd90613428565b60405180910390fd5b6001600260146101000a81548160ff0219169083151502179055506000600260156101000a81548160ff021916908315150217905550565b3373ffffffffffffffffffffffffffffffffffffffff16600260009054906101000a900473ffffffffffffffffffffffffffffffffffffffff1673ffffffffffffffffffffffffffffffffffffffff1614611f8e576040517f08c379a0000000000000000000000000000000000000000000000000000000008152600401611f85906134ba565b60405180910390fd5b8473ffffffffffffffffffffffffffffffffffffffff16600460008773ffffffffffffffffffffffffffffffffffffffff1673ffffffffffffffffffffffffffffffffffffffff16815260200190815260200160002060050160009054906101000a900473ffffffffffffffffffffffffffffffffffffffff1673ffffffffffffffffffffffffffffffffffffffff160361205e576040517f08c379a00000000000000000000000000000000000000000000000000000000081526004016120559061354c565b60405180910390fd5b6120686001612362565b60006120746001612378565b90506000600460008873ffffffffffffffffffffffffffffffffffffffff1673ffffffffffffffffffffffffffffffffffffffff1681526020019081526020016000209050858160020190816120ca9190612efa565b50848160010190816120dc9190612efa565b50818160000181905550838160030190816120f79190612efa565b5060008160040181905550868160050160006101000a81548173ffffffffffffffffffffffffffffffffffffffff021916908373ffffffffffffffffffffffffffffffffffffffff160217905550828160060190816121569190612efa565b506003879080600181540180825580915050600190039060005260206000200160009091909190916101000a81548173ffffffffffffffffffffffffffffffffffffffff021916908373ffffffffffffffffffffffffffffffffffffffff160217905550817fd297f12b256bb8485a6013fb5e302017018123e99a0ebb20756c09e1707b4b9087878785600401548c896040516121f89695949392919061356c565b60405180910390a250505050505050565b600260009054906101000a900473ffffffffffffffffffffffffffffffffffffffff1673ffffffffffffffffffffffffffffffffffffffff163373ffffffffffffffffffffffffffffffffffffffff1614612299576040517f08c379a00000000000000000000000000000000000000000000000000000000081526004016122909061365b565b60405180910390fd5b600260149054906101000a900460ff166122e8576040517f08c379a00000000000000000000000000000000000000000000000000000000081526004016122df9061315d565b60405180910390fd5b600260159054906101000a900460ff1615612338576040517f08c379a000000000000000000000000000000000000000000000000000000000815260040161232f906131c9565b60405180910390fd5b6001600260156101000a81548160ff021916908315150217905550565b6000600380549050905090565b6001816000016000828254019250508190555050565b600081600001549050919050565b6000604051905090565b600080fd5b600080fd5b600073ffffffffffffffffffffffffffffffffffffffff82169050919050565b60006123c58261239a565b9050919050565b6123d5816123ba565b81146123e057600080fd5b50565b6000813590506123f2816123cc565b92915050565b600080fd5b600080fd5b6000601f19601f8301169050919050565b7f4e487b7100000000000000000000000000000000000000000000000000000000600052604160045260246000fd5b61244b82612402565b810181811067ffffffffffffffff8211171561246a57612469612413565b5b80604052505050565b600061247d612386565b90506124898282612442565b919050565b600067ffffffffffffffff8211156124a9576124a8612413565b5b6124b282612402565b9050602081019050919050565b82818337600083830152505050565b60006124e16124dc8461248e565b612473565b9050828152602081018484840111156124fd576124fc6123fd565b5b6125088482856124bf565b509392505050565b600082601f830112612525576125246123f8565b5b81356125358482602086016124ce565b91505092915050565b6000806000806080858703121561255857612557612390565b5b6000612566878288016123e3565b945050602085013567ffffffffffffffff81111561258757612586612395565b5b61259387828801612510565b935050604085013567ffffffffffffffff8111156125b4576125b3612395565b5b6125c087828801612510565b925050606085013567ffffffffffffffff8111156125e1576125e0612395565b5b6125ed87828801612510565b91505092959194509250565b6000819050919050565b61260c816125f9565b82525050565b60006020820190506126276000830184612603565b92915050565b600081519050919050565b600082825260208201905092915050565b60005b8381101561266757808201518184015260208101905061264c565b60008484015250505050565b600061267e8261262d565b6126888185612638565b9350612698818560208601612649565b6126a181612402565b840191505092915050565b6126b5816123ba565b82525050565b600060e0820190506126d0600083018a612603565b81810360208301526126e28189612673565b905081810360408301526126f68188612673565b9050818103606083015261270a8187612673565b90506127196080830186612603565b61272660a08301856126ac565b81810360c08301526127388184612673565b905098975050505050505050565b600060208201905061275b60008301846126ac565b92915050565b61276a816125f9565b811461277557600080fd5b50565b60008135905061278781612761565b92915050565b6000602082840312156127a3576127a2612390565b5b60006127b184828501612778565b91505092915050565b600080604083850312156127d1576127d0612390565b5b60006127df858286016123e3565b92505060206127f085828601612778565b9150509250929050565b600081519050919050565b600082825260208201905092915050565b6000819050602082019050919050565b61282f816123ba565b82525050565b60006128418383612826565b60208301905092915050565b6000602082019050919050565b6000612865826127fa565b61286f8185612805565b935061287a83612816565b8060005b838110156128ab5781516128928882612835565b975061289d8361284d565b92505060018101905061287e565b5085935050505092915050565b600060208201905081810360008301526128d2818461285a565b905092915050565b60008115159050919050565b6128ef816128da565b82525050565b600060208201905061290a60008301846128e6565b92915050565b60006020828403121561292657612925612390565b5b6000612934848285016123e3565b91505092915050565b600061010082019050612953600083018b612603565b8181036020830152612965818a612673565b905081810360408301526129798189612673565b905061298860608301886126ac565b6129956080830187612603565b6129a260a08301866128e6565b6129af60c0830185612603565b81810360e08301526129c18184612673565b90509998505050505050505050565b600060e08201905081810360008301526129ea818a612673565b905081810360208301526129fe8189612673565b9050612a0d6040830188612603565b8181036060830152612a1f8187612673565b9050612a2e6080830186612603565b81810360a0830152612a408185612673565b9050612a4f60c08301846126ac565b98975050505050505050565b600060e082019050612a70600083018a612603565b8181036020830152612a828189612673565b90508181036040830152612a968188612673565b9050612aa560608301876126ac565b8181036080830152612ab78186612673565b9050612ac660a0830185612603565b612ad360c08301846128e6565b98975050505050505050565b600080600080600060a08688031215612afb57612afa612390565b5b6000612b09888289016123e3565b955050602086013567ffffffffffffffff811115612b2a57612b29612395565b5b612b3688828901612510565b945050604086013567ffffffffffffffff811115612b5757612b56612395565b5b612b6388828901612510565b935050606086013567ffffffffffffffff811115612b8457612b83612395565b5b612b9088828901612510565b925050608086013567ffffffffffffffff811115612bb157612bb0612395565b5b612bbd88828901612510565b9150509295509295909350565b7f4f6e6c79204f7267616e697a65722063616e2063726561746520566f7465722060008201527f6e6f7420796f7500000000000000000000000000000000000000000000000000602082015250565b6000612c26602783612638565b9150612c3182612bca565b604082019050919050565b60006020820190508181036000830152612c5581612c19565b9050919050565b7f566f74657220776974682074686973206164647265737320616c72656164792060008201527f6578697374730000000000000000000000000000000000000000000000000000602082015250565b6000612cb8602683612638565b9150612cc382612c5c565b604082019050919050565b60006020820190508181036000830152612ce781612cab565b9050919050565b7f4e487b7100000000000000000000000000000000000000000000000000000000600052602260045260246000fd5b60006002820490506001821680612d3557607f821691505b602082108103612d4857612d47612cee565b5b50919050565b60008190508160005260206000209050919050565b60006020601f8301049050919050565b600082821b905092915050565b600060088302612db07fffffffffffffffffffffffffffffffffffffffffffffffffffffffffffffffff82612d73565b612dba8683612d73565b95508019841693508086168417925050509392505050565b6000819050919050565b6000612df7612df2612ded846125f9565b612dd2565b6125f9565b9050919050565b6000819050919050565b612e1183612ddc565b612e25612e1d82612dfe565b848454612d80565b825550505050565b600090565b612e3a612e2d565b612e45818484612e08565b505050565b5b81811015612e6957612e5e600082612e32565b600181019050612e4b565b5050565b601f821115612eae57612e7f81612d4e565b612e8884612d63565b81016020851015612e97578190505b612eab612ea385612d63565b830182612e4a565b50505b505050565b600082821c905092915050565b6000612ed160001984600802612eb3565b1980831691505092915050565b6000612eea8383612ec0565b9150826002028217905092915050565b612f038261262d565b67ffffffffffffffff811115612f1c57612f1b612413565b5b612f268254612d1d565b612f31828285612e6d565b600060209050601f831160018114612f645760008415612f52578287015190505b612f5c8582612ede565b865550612fc4565b601f198416612f7286612d4e565b60005b82811015612f9a57848901518255600182019150602085019450602081019050612f75565b86831015612fb75784890151612fb3601f891682612ec0565b8355505b6001600288020188555050505b505050505050565b600060e0820190508181036000830152612fe6818a612673565b90508181036020830152612ffa8189612673565b905061300960408301886126ac565b6130166060830187612603565b61302360808301866128e6565b61303060a0830185612603565b81810360c08301526130428184612673565b905098975050505050505050565b7f566f74696e6720706572696f6420686173206e6f7420656e6465642079657400600082015250565b6000613086601f83612638565b915061309182613050565b602082019050919050565b600060208201905081810360008301526130b581613079565b9050919050565b7f4e487b7100000000000000000000000000000000000000000000000000000000600052603260045260246000fd5b7f566f74696e6720706572696f6420686173206e6f74207374617274656420796560008201527f7400000000000000000000000000000000000000000000000000000000000000602082015250565b6000613147602183612638565b9150613152826130eb565b604082019050919050565b600060208201905081810360008301526131768161313a565b9050919050565b7f566f74696e6720706572696f642068617320616c726561647920656e64656400600082015250565b60006131b3601f83612638565b91506131be8261317d565b602082019050919050565b600060208201905081810360008301526131e2816131a6565b9050919050565b7f596f75206861766520616c726561647920566f74656400000000000000000000600082015250565b600061321f601683612638565b915061322a826131e9565b602082019050919050565b6000602082019050818103600083015261324e81613212565b9050919050565b7f596f752068617665206e6f20726967687420746f20566f746500000000000000600082015250565b600061328b601983612638565b915061329682613255565b602082019050919050565b600060208201905081810360008301526132ba8161327e565b9050919050565b7f4e487b7100000000000000000000000000000000000000000000000000000000600052601160045260246000fd5b60006132fb826125f9565b9150613306836125f9565b925082820190508082111561331e5761331d6132c1565b5b92915050565b7f4f6e6c7920746865206f7267616e697a65722063616e2073746172742074686560008201527f20766f74696e6720706572696f64000000000000000000000000000000000000602082015250565b6000613380602e83612638565b915061338b82613324565b604082019050919050565b600060208201905081810360008301526133af81613373565b9050919050565b7f566f74696e6720706572696f642068617320616c72656164792073746172746560008201527f6400000000000000000000000000000000000000000000000000000000000000602082015250565b6000613412602183612638565b915061341d826133b6565b604082019050919050565b6000602082019050818103600083015261344181613405565b9050919050565b7f4f6e6c79204f7267616e697a65722063616e206175746f72697a652063616e6460008201527f6964617465000000000000000000000000000000000000000000000000000000602082015250565b60006134a4602583612638565b91506134af82613448565b604082019050919050565b600060208201905081810360008301526134d381613497565b9050919050565b7f43616e64696461746520776974682074686973206164647265737320616c726560008201527f6164792065786973747300000000000000000000000000000000000000000000602082015250565b6000613536602a83612638565b9150613541826134da565b604082019050919050565b6000602082019050818103600083015261356581613529565b9050919050565b600060c08201905081810360008301526135868189612673565b9050818103602083015261359a8188612673565b905081810360408301526135ae8187612673565b90506135bd6060830186612603565b6135ca60808301856126ac565b81810360a08301526135dc8184612673565b9050979650505050505050565b7f4f6e6c7920746865206f7267616e697a65722063616e20656e6420746865207660008201527f6f74696e6720706572696f640000000000000000000000000000000000000000602082015250565b6000613645602c83612638565b9150613650826135e9565b604082019050919050565b6000602082019050818103600083015261367481613638565b905091905056fea264697066735822122021396e00f3e99eb05a2a91cc125b723d92e37c8d4b7f8beba3f2d7c96efdbfc864736f6c63430008180033",
  "linkReferences": {},
  "deployedLinkReferences": {}
}